:100000000C9462000C948A000C948A000C948A0070
:100010000C948A000C948A000C948A000C948A0038
:100020000C948A000C948A000C948A000C948A0028
:100030000C948A000C948A000C948A000C948A0018
:100040000C94E7030C948A000C94B5030C948F0372
:100050000C948A000C948A000C948A000C948A00F8
:100060000C948A000C948A000000000024002700F1
:100070002A0000000000250028002B0000000008D6
:10008000000201000003040700000000000000005F
:1000900000000000230026002900040404040404D6
:1000A0000404020202020202030303030303010227
:1000B00004081020408001020408102001020408F6
:1000C0001020EA0511241FBECFEFD8E0DEBFCDBF60
:1000D00011E0A0E0B1E0E4EEFEE002C005900D9278
:1000E000AE32B107D9F721E0AEE2B1E001C01D9216
:1000F000A03EB207E1F710E0C2E6D0E004C02197CD
:10010000FE010E946A07C136D107C9F70E94760432
:100110000C9470070C940000AF92BF92CF92DF92C4
:10012000EF92FF920F931F93CF93DF936C017B01AC
:100130008B01040F151FEB015E01AE18BF08C0173D
:10014000D10759F06991D601ED91FC910190F081B0
:10015000E02DC6010995892B79F7C501DF91CF9173
:100160001F910F91FF90EF90DF90CF90BF90AF90D5
:100170000895FC01538D448D252F30E0842F90E0AD
:10018000821B930B541710F0CF9608950197089592
:10019000FC01918D828D981761F0A28DAE0FBF2F5B
:1001A000B11D5D968C91928D9F5F9F73928F90E0B1
:1001B00008958FEF9FEF0895FC01918D828D981720
:1001C00031F0828DE80FF11D858D90E008958FEF5D
:1001D0009FEF0895FC01918D228D892F90E0805C26
:1001E0009F4F821B91098F739927089583E491E0B3
:1001F0000E94EA0021E0892B09F420E0822F089573
:1002000080E090E0892B29F00E94F60081110C9487
:1002100000000895FC01A48DA80FB92FB11DA35AA9
:10022000BF4F2C91848D90E001968F739927848F16
:10023000A689B7892C93A089B1898C918370806439
:100240008C93938D848D981306C00288F389E02DDA
:1002500080818F7D80830895EF92FF920F931F938B
:10026000CF93DF93EC0181E0888F9B8D8C8D981369
:100270001AC0E889F989808185FF15C09FB7F89475
:10028000EE89FF896083E889F989808183708064C1
:1002900080839FBF81E090E0DF91CF911F910F910C
:1002A000FF90EF900895F62E0B8D10E00F5F1F4F1B
:1002B0000F731127E02E8C8D8E110CC00FB607FC2A
:1002C000FACFE889F989808185FFF5CFCE010E94B8
:1002D0000A01F1CFEB8DEC0FFD2FF11DE35AFF4F1B
:1002E000F0829FB7F8940B8FEA89FB898081806246
:1002F000CFCFCF93DF93EC01888D8823B9F0AA8903
:10030000BB89E889F9898C9185FD03C0808186FDD0
:100310000DC00FB607FCF7CF8C9185FFF2CF80811F
:1003200085FFEDCFCE010E940A01E9CFDF91CF9189
:10033000089590E0FC01E458FF4F2491FC01E25540
:10034000FF4F3491FC01E656FF4FE491EE23C9F0D4
:10035000222339F0233001F1A8F4213019F12230A1
:1003600029F1F0E0EE0FFF1FEE58FF4FA591B49179
:100370008FB7F894EC91611126C030953E233C93E1
:100380008FBF08952730A9F02830C9F0243049F7ED
:10039000809180008F7D03C0809180008F77809353
:1003A0008000DFCF84B58F7784BDDBCF84B58F7DB0
:1003B000FBCF8091B0008F778093B000D2CF809137
:1003C000B0008F7DF9CF3E2BDACFCF93DF9390E053
:1003D000FC01E255FF4F249186569F4FFC0184910A
:1003E0008823D1F090E0880F991FFC01E859FF4F56
:1003F000A591B491FC01EE58FF4FC591D4916111C4
:100400000EC09FB7F8948C91E22FE0958E238C93C9
:100410002881E223E8839FBFDF91CF9108958FB7B2
:10042000F894EC91E22BEC938FBFF6CF3FB7F894A2
:1004300080912F0190913001A0913101B091320152
:1004400026B5A89B05C02F3F19F00196A11DB11D2F
:100450003FBFBA2FA92F982F8827BC01CD01620F6B
:10046000711D811D911D42E0660F771F881F991F26
:100470004A95D1F708958F929F92AF92BF92CF92F3
:10048000DF92EF92FF924B015C010E9416026B011A
:100490007C010E9416026C197D098E099F09683E35
:1004A000734081059105A8F321E0821A9108A10803
:1004B000B10888EEC80E83E0D81EE11CF11C81143F
:1004C0009104A104B10429F7FF90EF90DF90CF9041
:1004D000BF90AF909F908F900895FC0101900020F5
:1004E000E9F73197AF01481B590BBC0183E491E058
:1004F0000C948C008F929F92AF92BF92CF92DF921A
:10050000EF92FF920F931F93CF93DF93CDB7DEB798
:10051000A1970FB6F894DEBF0FBECDBF6C01990F47
:10052000EE08FF08F7FE47C06DE283E491E00E9409
:100530002C018C0122273327A9012C193D094E09D2
:100540005F0919A2CE0181967C019AE0892E912C37
:10055000A12CB12CCA01B901A50194010E94480740
:10056000605DF70162937F01211531054105510559
:1005700089F790E080E0309719F0CF010E946D027A
:10058000080F191F82E191E00E946D02800F911FF8
:10059000A1960FB6F894DEBF0FBECDBFDF91CF910D
:1005A0001F910F91FF90EF90DF90CF90BF90AF9091
:1005B0009F908F900895A701960119A28E010F5D5B
:1005C0001F4F8AE0C82ED12CE12CF12CCA01B901B1
:1005D000A70196010E944807605DF80162938F01B0
:1005E000211531054105510589F7309729F0CF01D3
:1005F0000E946D028C01C6CF10E000E0C3CF0F93C4
:100600001F9390E0FC01E255FF4F6491FC01E65618
:10061000FF4FE491F0E0EE0FFF1FE057FF4F859191
:10062000949100E412E42FE030E0462F0E94310460
:10063000611571058105910529F06F5F7F4F8F4F1F
:100640009F4F9F701F910F91089560E087E00E9477
:10065000990183E090E00197F1F761E087E00E9463
:10066000990183E290E00197F1F760E087E00E9452
:10067000990186E00E94FF020E944F0626E933E4BA
:100680004BE05DE30E94B30620E030E040E05FE332
:100690000E94B3060E9417067093380160933701D9
:1006A00085E191E00E946D028091370190913801BF
:1006B0000C947A0260E08AE00E94990183E090E065
:1006C0000197F1F761E08AE00E94990183E290E0EE
:1006D0000197F1F760E08AE00E94990189E00E94A9
:1006E000FF020E944F0626E933E44BE05DE30E94DF
:1006F000B30620E030E040E05FE30E94B3060E94D2
:10070000170670933E0160933D0181E291E00E94E3
:100710006D0280913D0190913E010C947A021F92EE
:100720000F920FB60F9211242F933F934F935F9325
:100730006F937F938F939F93AF93BF93EF93FF93A9
:1007400083E491E00E940A01FF91EF91BF91AF9184
:100750009F918F917F916F915F914F913F912F91D9
:100760000F900FBE0F901F9018951F920F920FB60B
:100770000F9211242F938F939F93EF93FF93E09108
:100780005301F09154018081E0915901F0915A0197
:1007900082FD1BC0908180915C018F5F8F732091DF
:1007A0005D01821741F0E0915C01F0E0ED5BFE4FEE
:1007B000958F80935C01FF91EF919F918F912F9185
:1007C0000F900FBE0F901F9018958081F4CF1F924D
:1007D0000F920FB60F9211242F933F938F939F93F5
:1007E000AF93BF938091330190913401A091350173
:1007F000B091360130912E0123E0230F2D3758F5AB
:100800000196A11DB11D20932E0180933301909379
:100810003401A0933501B093360180912F0190915E
:100820003001A0913101B09132010196A11DB11D9D
:1008300080932F0190933001A0933101B093320146
:10084000BF91AF919F918F913F912F910F900FBECC
:100850000F901F90189526E8230F0296A11DB11D39
:10086000D2CFCF92DF92EF92FF920F931F93E82F98
:10087000F92F05C0015011092109310961F1908159
:1008800096239417B9F305C00150110921093109C4
:1008900011F1908196239413F7CFC12CD12CE12C28
:1008A000F12C0AC08FEFC81AD80AE80AF80A0C150A
:1008B0001D052E053F0579F080818623841791F36D
:1008C0006C2D7D2D8E2D9F2D1F910F91FF90EF9000
:1008D000DF90CF90089560E070E080E090E01F919D
:1008E0000F91FF90EF90DF90CF900895789484B5AA
:1008F000826084BD84B5816084BD85B5826085BD1C
:1009000085B5816085BD80916E00816080936E00A9
:10091000109281008091810082608093810080919B
:10092000810081608093810080918000816080934C
:1009300080008091B10084608093B1008091B0000C
:1009400081608093B00080917A00846080937A0007
:1009500080917A00826080937A0080917A00816031
:1009600080937A0080917A00806880937A00109258
:10097000C10061E08AE00E94E50160E089E00E9438
:10098000E50161E087E00E94E50160E086E00E9409
:10099000E50161E08DE00E94E50161E088E00E94F0
:1009A000E50160E08DE00E94990160E088E00E942E
:1009B0009901E0915301F091540182E08083E0912C
:1009C0004F01F09150011082E0915101F0915201DC
:1009D0008FEC808310925B01E0915701F0915801F8
:1009E00086E08083E0915501F0915601808180611D
:1009F0008083E0915501F091560180818860808369
:100A0000E0915501F0915601808180688083E091EA
:100A10005501F091560180818F7D808300E010E0C8
:100A2000C1E0D0E08091410190914201892B09F011
:100A3000C5C080913F0190914001892B09F0BEC053
:100A40000E945A0380913D0190913E0182349105AC
:100A50000CF079C0D0934001C0933F012FB7F894B8
:100A60008091330190913401A0913501B09136010C
:100A70002FBF8093390190933A01A0933B01B0932B
:100A80003C0180913F0190914001019709F05BC0CA
:100A900061E08DE00E9499018091410190914201B5
:100AA000892B09F050C080913F019091400101973E
:100AB00009F049C00E9425032FB7F89480913301B3
:100AC00090913401A0913501B09136012FBF409132
:100AD000390150913A0160913B0170913C01841BB6
:100AE000950BA60BB70B813D9740A105B10538F4D6
:100AF0008091370190913801823491056CF660E065
:100B00008DE00E94990180913701909138018234E3
:100B1000910514F668EE73E080E090E00E943B02DD
:100B200061E088E00E94990164EF71E080E090E06C
:100B30000E943B0260E088E00E949901109240010F
:100B400010923F01A9CF0E94250380913701909117
:100B500038018234910594F5D0934201C09341014C
:100B60008091410190914201019741F580913F01AF
:100B700090914001892B11F50E945A0380913D010B
:100B800090913E01823491055CF768EE73E080E05D
:100B900090E00E943B0261E088E00E94990164EFCE
:100BA00071E080E090E00E943B0260E088E00E94FB
:100BB00099011092420110924101D2CF0115110505
:100BC00009F430CF0E94F600882309F42BCF0E944D
:100BD000000028CFE3E4F1E01382128288EE93E074
:100BE000A0E0B0E084839583A683B78384E091E09E
:100BF0009183808385EC90E09587848784EC90E0F6
:100C00009787868780EC90E0918B808B81EC90E0D9
:100C1000938B828B82EC90E0958B848B86EC90E0BA
:100C2000978B868B118E128E138E148E08950E94D0
:100C30001E066894B1110C94AD0608950E949206A8
:100C400088F09F5798F0B92F9927B751B0F0E1F08D
:100C5000660F771F881F991F1AF0BA95C9F714C03D
:100C6000B13091F00E94AC06B1E008950C94AC064E
:100C7000672F782F8827B85F39F0B93FCCF3869576
:100C800077956795B395D9F73EF4909580957095D3
:100C900061957F4F8F4F9F4F0895E89409C097FB50
:100CA0003EF490958095709561957F4F8F4F9F4F43
:100CB0009923A9F0F92F96E9BB279395F695879587
:100CC00077956795B795F111F8CFFAF4BB0F11F44A
:100CD00060FF1BC06F5F7F4F8F4F9F4F16C08823F1
:100CE00011F096E911C0772321F09EE8872F762F27
:100CF00005C0662371F096E8862F70E060E02AF068
:100D00009A95660F771F881FDAF7880F9695879553
:100D100097F9089557FD9058440F551F59F05F3FBC
:100D200071F04795880F97FB991F61F09F3F79F00D
:100D300087950895121613061406551FF2CF46958F
:100D4000F1DF08C0161617061806991FF1CF869511
:100D50007105610508940895E894BB2766277727F5
:100D6000CB0197F908950E94C6060C9437070E949C
:100D7000290738F00E94300720F0952311F00C94D9
:100D800020070C94260711240C94AD060E948A06B5
:100D900070F3959FC1F3950F50E0551F629FF001CE
:100DA000729FBB27F00DB11D639FAA27F00DB11DE7
:100DB000AA1F649F6627B00DA11D661F829F222770
:100DC000B00DA11D621F739FB00DA11D621F839FF7
:100DD000A00D611D221F749F3327A00D611D231FCD
:100DE000849F600D211D822F762F6A2F11249F571B
:100DF00050409AF0F1F088234AF0EE0FFF1FBB1F1E
:100E0000661F771F881F91505040A9F79E3F5105DC
:100E100080F00C9420070C94AD065F3FE4F3983EFD
:100E2000D4F3869577956795B795F795E7959F5F86
:100E3000C1F7FE2B880F911D9695879597F9089518
:100E400097F99F6780E870E060E008959FEF80EC7D
:100E5000089500240A941616170618060906089520
:100E600000240A9412161306140605060895092E86
:100E70000394000C11F4882352F0BB0F40F4BF2BF5
:100E800011F460FF04C06F5F7F4F8F4F9F4F089535
:100E9000A1E21A2EAA1BBB1BFD010DC0AA1FBB1F7E
:100EA000EE1FFF1FA217B307E407F50720F0A21BF0
:100EB000B30BE40BF50B661F771F881F991F1A945D
:100EC00069F760957095809590959B01AC01BD0187
:100ED000CF010895EE0FFF1F0590F491E02D0994C6
:040EE000F894FFCFB4
:100EE400000000002C018C00B9007901EA00C80060
:100EF400DC000D0A0044697374616E6365333A2043
:0E0F04000044697374616E6365313A20000029
:107E0000112484B714BE81FFF0D085E080938100F7
:107E100082E08093C00088E18093C10086E0809377
:107E2000C20080E18093C4008EE0C9D0259A86E02C
:107E300020E33CEF91E0309385002093840096BBD3
:107E4000B09BFECF1D9AA8958150A9F7CC24DD24C4
:107E500088248394B5E0AB2EA1E19A2EF3E0BF2EE7
:107E6000A2D0813461F49FD0082FAFD0023811F036
:107E7000013811F484E001C083E08DD089C08234E0
:107E800011F484E103C0853419F485E0A6D080C0E4
:107E9000853579F488D0E82EFF2485D0082F10E0AE
:107EA000102F00270E291F29000F111F8ED06801E7
:107EB0006FC0863521F484E090D080E0DECF843638
:107EC00009F040C070D06FD0082F6DD080E0C81688
:107ED00080E7D80618F4F601B7BEE895C0E0D1E017
:107EE00062D089930C17E1F7F0E0CF16F0E7DF06D8
:107EF00018F0F601B7BEE89568D007B600FCFDCFD4
:107F0000A601A0E0B1E02C9130E011968C91119780
:107F100090E0982F8827822B932B1296FA010C0160
:107F200087BEE89511244E5F5F4FF1E0A038BF0790
:107F300051F7F601A7BEE89507B600FCFDCF97BE46
:107F4000E89526C08437B1F42ED02DD0F82E2BD052
:107F50003CD0F601EF2C8F010F5F1F4F84911BD097
:107F6000EA94F801C1F70894C11CD11CFA94CF0C13
:107F7000D11C0EC0853739F428D08EE10CD085E9AC
:107F80000AD08FE07ACF813511F488E018D01DD067
:107F900080E101D065CF982F8091C00085FFFCCF94
:107FA0009093C60008958091C00087FFFCCF809118
:107FB000C00084FD01C0A8958091C6000895E0E648
:107FC000F0E098E1908380830895EDDF803219F02E
:107FD00088E0F5DFFFCF84E1DECF1F93182FE3DFCA
:107FE0001150E9F7F2DF1F91089580E0E8DFEE27F6
:047FF000FF270994CA
:027FFE00040479
:0400000300007E007B
:00000001FF
